{
  "_format": "hh-sol-artifact-1",
  "contractName": "SentinelVault",
  "sourceName": "contracts/SentinelVault.sol",
  "abi": [
    {
      "inputs": [
        {
          "internalType": "address",
          "name": "_usdcToken",
          "type": "address"
        },
        {
          "internalType": "address",
          "name": "_policyRegistry",
          "type": "address"
        }
      ],
      "stateMutability": "nonpayable",
      "type": "constructor"
    },
    {
      "inputs": [],
      "name": "AgentNotActive",
      "type": "error"
    },
    {
      "inputs": [],
      "name": "ExceedsDailyCap",
      "type": "error"
    },
    {
      "inputs": [],
      "name": "ExceedsPerTxLimit",
      "type": "error"
    },
    {
      "inputs": [],
      "name": "InsufficientBalance",
      "type": "error"
    },
    {
      "inputs": [
        {
          "internalType": "address",
          "name": "owner",
          "type": "address"
        }
      ],
      "name": "OwnableInvalidOwner",
      "type": "error"
    },
    {
      "inputs": [
        {
          "internalType": "address",
          "name": "account",
          "type": "address"
        }
      ],
      "name": "OwnableUnauthorizedAccount",
      "type": "error"
    },
    {
      "inputs": [],
      "name": "RecipientNotWhitelisted",
      "type": "error"
    },
    {
      "inputs": [],
      "name": "ReentrancyGuardReentrantCall",
      "type": "error"
    },
    {
      "anonymous": false,
      "inputs": [
        {
          "indexed": true,
          "internalType": "bytes32",
          "name": "agentId",
          "type": "bytes32"
        },
        {
          "indexed": false,
          "internalType": "uint256",
          "name": "amount",
          "type": "uint256"
        }
      ],
      "name": "Deposited",
      "type": "event"
    },
    {
      "anonymous": false,
      "inputs": [
        {
          "indexed": true,
          "internalType": "address",
          "name": "previousOwner",
          "type": "address"
        },
        {
          "indexed": true,
          "internalType": "address",
          "name": "newOwner",
          "type": "address"
        }
      ],
      "name": "OwnershipTransferred",
      "type": "event"
    },
    {
      "anonymous": false,
      "inputs": [
        {
          "indexed": true,
          "internalType": "bytes32",
          "name": "agentId",
          "type": "bytes32"
        },
        {
          "indexed": false,
          "internalType": "string",
          "name": "reason",
          "type": "string"
        }
      ],
      "name": "PaymentBlocked",
      "type": "event"
    },
    {
      "anonymous": false,
      "inputs": [
        {
          "indexed": true,
          "internalType": "bytes32",
          "name": "agentId",
          "type": "bytes32"
        },
        {
          "indexed": true,
          "internalType": "address",
          "name": "recipient",
          "type": "address"
        },
        {
          "indexed": false,
          "internalType": "uint256",
          "name": "amount",
          "type": "uint256"
        },
        {
          "indexed": false,
          "internalType": "uint256",
          "name": "timestamp",
          "type": "uint256"
        }
      ],
      "name": "PaymentExecuted",
      "type": "event"
    },
    {
      "inputs": [
        {
          "internalType": "bytes32",
          "name": "agentId",
          "type": "bytes32"
        },
        {
          "internalType": "uint256",
          "name": "amount",
          "type": "uint256"
        }
      ],
      "name": "deposit",
      "outputs": [],
      "stateMutability": "nonpayable",
      "type": "function"
    },
    {
      "inputs": [
        {
          "internalType": "bytes32",
          "name": "agentId",
          "type": "bytes32"
        },
        {
          "internalType": "address",
          "name": "recipient",
          "type": "address"
        },
        {
          "internalType": "uint256",
          "name": "amount",
          "type": "uint256"
        }
      ],
      "name": "executePayment",
      "outputs": [],
      "stateMutability": "nonpayable",
      "type": "function"
    },
    {
      "inputs": [
        {
          "internalType": "bytes32",
          "name": "agentId",
          "type": "bytes32"
        }
      ],
      "name": "getBalance",
      "outputs": [
        {
          "internalType": "uint256",
          "name": "",
          "type": "uint256"
        }
      ],
      "stateMutability": "view",
      "type": "function"
    },
    {
      "inputs": [
        {
          "internalType": "bytes32",
          "name": "agentId",
          "type": "bytes32"
        }
      ],
      "name": "getDailySpent",
      "outputs": [
        {
          "internalType": "uint256",
          "name": "",
          "type": "uint256"
        }
      ],
      "stateMutability": "view",
      "type": "function"
    },
    {
      "inputs": [
        {
          "internalType": "bytes32",
          "name": "agentId",
          "type": "bytes32"
        }
      ],
      "name": "getRemainingDailyBudget",
      "outputs": [
        {
          "internalType": "uint256",
          "name": "",
          "type": "uint256"
        }
      ],
      "stateMutability": "view",
      "type": "function"
    },
    {
      "inputs": [],
      "name": "owner",
      "outputs": [
        {
          "internalType": "address",
          "name": "",
          "type": "address"
        }
      ],
      "stateMutability": "view",
      "type": "function"
    },
    {
      "inputs": [],
      "name": "policyRegistry",
      "outputs": [
        {
          "internalType": "contract PolicyRegistry",
          "name": "",
          "type": "address"
        }
      ],
      "stateMutability": "view",
      "type": "function"
    },
    {
      "inputs": [],
      "name": "renounceOwnership",
      "outputs": [],
      "stateMutability": "nonpayable",
      "type": "function"
    },
    {
      "inputs": [
        {
          "internalType": "address",
          "name": "newOwner",
          "type": "address"
        }
      ],
      "name": "transferOwnership",
      "outputs": [],
      "stateMutability": "nonpayable",
      "type": "function"
    },
    {
      "inputs": [],
      "name": "usdcToken",
      "outputs": [
        {
          "internalType": "contract IERC20",
          "name": "",
          "type": "address"
        }
      ],
      "stateMutability": "view",
      "type": "function"
    }
  ],
  "bytecode": "0x60806040523480156200001157600080fd5b50604051620017d9380380620017d983398181016040528101906200003791906200027e565b33600073ffffffffffffffffffffffffffffffffffffffff168173ffffffffffffffffffffffffffffffffffffffff1603620000ad5760006040517f1e4fbdf7000000000000000000000000000000000000000000000000000000008152600401620000a49190620002d6565b60405180910390fd5b620000be816200015060201b60201c565b506001808190555081600260006101000a81548173ffffffffffffffffffffffffffffffffffffffff021916908373ffffffffffffffffffffffffffffffffffffffff16021790555080600360006101000a81548173ffffffffffffffffffffffffffffffffffffffff021916908373ffffffffffffffffffffffffffffffffffffffff1602179055505050620002f3565b60008060009054906101000a900473ffffffffffffffffffffffffffffffffffffffff169050816000806101000a81548173ffffffffffffffffffffffffffffffffffffffff021916908373ffffffffffffffffffffffffffffffffffffffff1602179055508173ffffffffffffffffffffffffffffffffffffffff168173ffffffffffffffffffffffffffffffffffffffff167f8be0079c531659141344cd1fd0a4f28419497f9722a3daafe3b4186f6b6457e060405160405180910390a35050565b600080fd5b600073ffffffffffffffffffffffffffffffffffffffff82169050919050565b6000620002468262000219565b9050919050565b620002588162000239565b81146200026457600080fd5b50565b60008151905062000278816200024d565b92915050565b6000806040838503121562000298576200029762000214565b5b6000620002a88582860162000267565b9250506020620002bb8582860162000267565b9150509250929050565b620002d08162000239565b82525050565b6000602082019050620002ed6000830184620002c5565b92915050565b6114d680620003036000396000f3fe608060405234801561001057600080fd5b506004361061009e5760003560e01c8063715018a611610066578063715018a61461015b5780638da5cb5b146101655780638e73946114610183578063a97274c2146101b3578063f2fde38b146101cf5761009e565b806311eac855146100a35780631c4dd7d0146100c15780631de26e16146100df5780632b12166a146100fb5780636382728a1461012b575b600080fd5b6100ab6101eb565b6040516100b89190610d17565b60405180910390f35b6100c9610211565b6040516100d69190610d53565b60405180910390f35b6100f960048036038101906100f49190610dee565b610237565b005b61011560048036038101906101109190610e2e565b61037e565b6040516101229190610e6a565b60405180910390f35b61014560048036038101906101409190610e2e565b61048b565b6040516101529190610e6a565b60405180910390f35b6101636104e1565b005b61016d6104f5565b60405161017a9190610ea6565b60405180910390f35b61019d60048036038101906101989190610e2e565b61051e565b6040516101aa9190610e6a565b60405180910390f35b6101cd60048036038101906101c89190610eed565b61053b565b005b6101e960048036038101906101e49190610f40565b610a70565b005b600260009054906101000a900473ffffffffffffffffffffffffffffffffffffffff1681565b600360009054906101000a900473ffffffffffffffffffffffffffffffffffffffff1681565b600260009054906101000a900473ffffffffffffffffffffffffffffffffffffffff1673ffffffffffffffffffffffffffffffffffffffff166323b872dd3330846040518463ffffffff1660e01b815260040161029693929190610f6d565b6020604051808303816000875af11580156102b5573d6000803e3d6000fd5b505050506040513d601f19601f820116820180604052508101906102d99190610fdc565b610318576040517f08c379a000000000000000000000000000000000000000000000000000000000815260040161030f90611066565b60405180910390fd5b8060046000848152602001908152602001600020600082825461033b91906110b5565b92505081905550817fcd2fe07293de5928c5df9505b65a8d6506f8668dfe81af09090920687edc48a9826040516103729190610e6a565b60405180910390a25050565b600080600360009054906101000a900473ffffffffffffffffffffffffffffffffffffffff1673ffffffffffffffffffffffffffffffffffffffff1663a3f685f9846040518263ffffffff1660e01b81526004016103dc91906110f8565b600060405180830381865afa1580156103f9573d6000803e3d6000fd5b505050506040513d6000823e3d601f19601f820116820180604052508101906104229190611348565b90506000620151804261043591906113c0565b905060006006600086815260200190815260200160002054821161046c57600560008681526020019081526020016000205461046f565b60005b905080836020015161048191906113f1565b9350505050919050565b600080620151804261049d91906113c0565b905060066000848152602001908152602001600020548111156104c45760009150506104dc565b60056000848152602001908152602001600020549150505b919050565b6104e9610af6565b6104f36000610b7d565b565b60008060009054906101000a900473ffffffffffffffffffffffffffffffffffffffff16905090565b600060046000838152602001908152602001600020549050919050565b610543610af6565b61054b610c41565b600360009054906101000a900473ffffffffffffffffffffffffffffffffffffffff1673ffffffffffffffffffffffffffffffffffffffff16638a92792b846040518263ffffffff1660e01b81526004016105a691906110f8565b602060405180830381865afa1580156105c3573d6000803e3d6000fd5b505050506040513d601f19601f820116820180604052508101906105e79190610fdc565b61061d576040517f486fcee200000000000000000000000000000000000000000000000000000000815260040160405180910390fd5b600360009054906101000a900473ffffffffffffffffffffffffffffffffffffffff1673ffffffffffffffffffffffffffffffffffffffff1663f409981184846040518363ffffffff1660e01b815260040161067a929190611425565b602060405180830381865afa158015610697573d6000803e3d6000fd5b505050506040513d601f19601f820116820180604052508101906106bb9190610fdc565b6106f1576040517f5ed3324c00000000000000000000000000000000000000000000000000000000815260040160405180910390fd5b6000600360009054906101000a900473ffffffffffffffffffffffffffffffffffffffff1673ffffffffffffffffffffffffffffffffffffffff1663a3f685f9856040518263ffffffff1660e01b815260040161074e91906110f8565b600060405180830381865afa15801561076b573d6000803e3d6000fd5b505050506040513d6000823e3d601f19601f820116820180604052508101906107949190611348565b905080600001518211156107d4576040517f3430558100000000000000000000000000000000000000000000000000000000815260040160405180910390fd5b600062015180426107e591906113c0565b9050600660008681526020019081526020016000205481111561083457600060056000878152602001908152602001600020819055508060066000878152602001908152602001600020819055505b816020015183600560008881526020019081526020016000205461085891906110b5565b1115610890576040517ff02fe4dd00000000000000000000000000000000000000000000000000000000815260040160405180910390fd5b82600460008781526020019081526020016000205410156108dd576040517ff4d678b800000000000000000000000000000000000000000000000000000000815260040160405180910390fd5b8260046000878152602001908152602001600020600082825461090091906113f1565b925050819055508260056000878152602001908152602001600020600082825461092a91906110b5565b92505081905550600260009054906101000a900473ffffffffffffffffffffffffffffffffffffffff1673ffffffffffffffffffffffffffffffffffffffff1663a9059cbb85856040518363ffffffff1660e01b815260040161098e92919061144e565b6020604051808303816000875af11580156109ad573d6000803e3d6000fd5b505050506040513d601f19601f820116820180604052508101906109d19190610fdc565b610a10576040517f08c379a0000000000000000000000000000000000000000000000000000000008152600401610a0790611066565b60405180910390fd5b8373ffffffffffffffffffffffffffffffffffffffff16857f312e4c92db7cf027c0ee62a620577affea3fb8f77304ab79bd7db2d877f13dae8542604051610a59929190611477565b60405180910390a35050610a6b610c87565b505050565b610a78610af6565b600073ffffffffffffffffffffffffffffffffffffffff168173ffffffffffffffffffffffffffffffffffffffff1603610aea5760006040517f1e4fbdf7000000000000000000000000000000000000000000000000000000008152600401610ae19190610ea6565b60405180910390fd5b610af381610b7d565b50565b610afe610c90565b73ffffffffffffffffffffffffffffffffffffffff16610b1c6104f5565b73ffffffffffffffffffffffffffffffffffffffff1614610b7b57610b3f610c90565b6040517f118cdaa7000000000000000000000000000000000000000000000000000000008152600401610b729190610ea6565b60405180910390fd5b565b60008060009054906101000a900473ffffffffffffffffffffffffffffffffffffffff169050816000806101000a81548173ffffffffffffffffffffffffffffffffffffffff021916908373ffffffffffffffffffffffffffffffffffffffff1602179055508173ffffffffffffffffffffffffffffffffffffffff168173ffffffffffffffffffffffffffffffffffffffff167f8be0079c531659141344cd1fd0a4f28419497f9722a3daafe3b4186f6b6457e060405160405180910390a35050565b600260015403610c7d576040517f3ee5aeb500000000000000000000000000000000000000000000000000000000815260040160405180910390fd5b6002600181905550565b60018081905550565b600033905090565b600073ffffffffffffffffffffffffffffffffffffffff82169050919050565b6000819050919050565b6000610cdd610cd8610cd384610c98565b610cb8565b610c98565b9050919050565b6000610cef82610cc2565b9050919050565b6000610d0182610ce4565b9050919050565b610d1181610cf6565b82525050565b6000602082019050610d2c6000830184610d08565b92915050565b6000610d3d82610ce4565b9050919050565b610d4d81610d32565b82525050565b6000602082019050610d686000830184610d44565b92915050565b6000604051905090565b600080fd5b600080fd5b6000819050919050565b610d9581610d82565b8114610da057600080fd5b50565b600081359050610db281610d8c565b92915050565b6000819050919050565b610dcb81610db8565b8114610dd657600080fd5b50565b600081359050610de881610dc2565b92915050565b60008060408385031215610e0557610e04610d78565b5b6000610e1385828601610da3565b9250506020610e2485828601610dd9565b9150509250929050565b600060208284031215610e4457610e43610d78565b5b6000610e5284828501610da3565b91505092915050565b610e6481610db8565b82525050565b6000602082019050610e7f6000830184610e5b565b92915050565b6000610e9082610c98565b9050919050565b610ea081610e85565b82525050565b6000602082019050610ebb6000830184610e97565b92915050565b610eca81610e85565b8114610ed557600080fd5b50565b600081359050610ee781610ec1565b92915050565b600080600060608486031215610f0657610f05610d78565b5b6000610f1486828701610da3565b9350506020610f2586828701610ed8565b9250506040610f3686828701610dd9565b9150509250925092565b600060208284031215610f5657610f55610d78565b5b6000610f6484828501610ed8565b91505092915050565b6000606082019050610f826000830186610e97565b610f8f6020830185610e97565b610f9c6040830184610e5b565b949350505050565b60008115159050919050565b610fb981610fa4565b8114610fc457600080fd5b50565b600081519050610fd681610fb0565b92915050565b600060208284031215610ff257610ff1610d78565b5b600061100084828501610fc7565b91505092915050565b600082825260208201905092915050565b7f5472616e73666572206661696c65640000000000000000000000000000000000600082015250565b6000611050600f83611009565b915061105b8261101a565b602082019050919050565b6000602082019050818103600083015261107f81611043565b9050919050565b7f4e487b7100000000000000000000000000000000000000000000000000000000600052601160045260246000fd5b60006110c082610db8565b91506110cb83610db8565b92508282019050808211156110e3576110e2611086565b5b92915050565b6110f281610d82565b82525050565b600060208201905061110d60008301846110e9565b92915050565b600080fd5b6000601f19601f8301169050919050565b7f4e487b7100000000000000000000000000000000000000000000000000000000600052604160045260246000fd5b61116182611118565b810181811067ffffffffffffffff821117156111805761117f611129565b5b80604052505050565b6000611193610d6e565b905061119f8282611158565b919050565b600080fd5b6000815190506111b881610dc2565b92915050565b600080fd5b600067ffffffffffffffff8211156111de576111dd611129565b5b602082029050602081019050919050565b600080fd5b60008151905061120381610ec1565b92915050565b600061121c611217846111c3565b611189565b9050808382526020820190506020840283018581111561123f5761123e6111ef565b5b835b81811015611268578061125488826111f4565b845260208401935050602081019050611241565b5050509392505050565b600082601f830112611287576112866111be565b5b8151611297848260208601611209565b91505092915050565b600060a082840312156112b6576112b5611113565b5b6112c060a0611189565b905060006112d0848285016111a9565b60008301525060206112e4848285016111a9565b602083015250604082015167ffffffffffffffff811115611308576113076111a4565b5b61131484828501611272565b604083015250606061132884828501610fc7565b606083015250608061133c848285016111a9565b60808301525092915050565b60006020828403121561135e5761135d610d78565b5b600082015167ffffffffffffffff81111561137c5761137b610d7d565b5b611388848285016112a0565b91505092915050565b7f4e487b7100000000000000000000000000000000000000000000000000000000600052601260045260246000fd5b60006113cb82610db8565b91506113d683610db8565b9250826113e6576113e5611391565b5b828204905092915050565b60006113fc82610db8565b915061140783610db8565b925082820390508181111561141f5761141e611086565b5b92915050565b600060408201905061143a60008301856110e9565b6114476020830184610e97565b9392505050565b60006040820190506114636000830185610e97565b6114706020830184610e5b565b9392505050565b600060408201905061148c6000830185610e5b565b6114996020830184610e5b565b939250505056fea2646970667358221220ce40033dd3fa0044369dfa461417ff580071b2d4dcafc9a8739e7487838d744264736f6c63430008140033",
  "linkReferences": {},
  "deployedLinkReferences": {}
}